:03000000020006F5
:03005F0002000399
:0300030002006296
:200062007E007F008F05C3ED648094815015EE2401F582EF3400F5838E05EDF00EBE00E49A
:200082000F80E17582E61205E81208E475170975180075194090000875F040120940AC08D8
:2000A2007D007E007F00750C108C828D838EF0EF12066F90104375F08012061EAC097D00F1
:2000C2007E007F007516108C828D838EF0EF1208BC74EFB50802800A7414B509028003129C
:2000E20008D990104675F0801206631209B3751D01751E00751F00900100E4F5F0120AE1F8
:20010200752501752600752700900100E4F5F0120BD17E007F008E048F0574FF2D4065EE6D
:200122002401F582EF3400F583E0F879007A007B00750C10888289838AF0EBC007C006C0E7
:2001420005C00412066FD004D005D006D00753040F7D00BC0F16BD001390104E75F080C0D0
:2001620007C006120663D006D007801190104F75F080C007C00612061ED006D0070EBE00E7
:20018200950F809290105375F08012066390104E75F08012066390106175F0801206638025
:0101A200FE5E
:2010430020200072656164204F4B0000202D20002F2F2F2F2F2F2F2F2F2F2F2F2F000A46D7
:20106300696E697368656420746865205350492044656D6F20436F646520616E6420746590
:0C108300737420706173732121210A0036
:2001A300AC82AD83AEF0FF43C40743C408EC4D4E4F602375C58375C6FF741055C4C4540F10
:2001C300FBBB01F553C4EF1CBCFF091DBDFF051EBEFF011F80D753C4F72285822F858330BC
:2001E30085F031F532900005E4F5F0120E7DAC82AD83AEF0C313FFEE13FEED13FDEC13FC6C
:20020300EFC313FFEE13FEED13FDEC13FC0CBC00090DBD00050EBE00010F1CBCFF091DBDEA
:0E022300FF051EBEFF011FEC4D4E4F70ED2279
:20023100E493F58222E493FEA3E4938E82F58322AE82AF8353A87F75C7AA75C755439F012E
:2002510043A88053A87F75C7AA75C75543A50143A88075AF218FA78EA6852FAE53A87F75DD
:20027100C7AA75C75543A40143A88053A87F75C7AA75C75553A5FE43A88053A87F75C7AA66
:2002910075C755539FFE43A88022AE82AF8353A87F75C7AA75C755439F0143A88075AEFF7C
:2002B10075AF2253A87F75C7AA75C75543A50143A8808FA78EA653A87F75C7AA75C7554304
:2002D100A40143A88053A87F75C7AA75C75553A5FE43A88053A87F75C7AA75C755539FFECA
:0402F10043A880227C
:2002F500900064E4F5F01201DD900159E02401F0E024F55004758201227582002243B308DF
:2003150043B40843B31043B41075BE2743C04022AF82900123E4F0900124F043C02053C069
:20033500F7900159E4F0740855C0C423541FFE700FC0071202F5E582D00760EA7582022218
:20035500EF2FF5BC900159E4F053C0DF53C0F7740855C0C423541F700B1202F5E58260EFDA
:200375007582032275820022AF82900123E0FE04F0EE2425F582E43401F583EFF0900123AA
:20039500E0900124F022AD82AE83AFF07C00C3EC950A5029EC2DF9E43EFA8F0389828A8387
:2003B5008BF0120FB5F582C007C006C005C00412037DD004D005D006D0070C80D1227F0064
:2003D500900124E0FEC3EF9E5035EF2425F582E43401F583E0F5BC900159E4F053C0DF53CC
:2003F500C0F7740855C0C423541FFE700FC0071202F5E582D00760EA758201220F80C143C4
:20041500C01043C008900159E4F0741055C0C4540FFFBF010B1202F5E58260EE75820322CA
:2004350075820022AF82900102E50BF0900101E4F043C02053C0F7900159E4F0740855C008
:20045500C423541FFE700FC0071202F5E582D00760EA75820222EF2FFF74014FF5BC53C098
:20047500DF53C0F7900159E4F0740855C0C423541F700B1202F5E58260EF758203227F0000
:20049500900102E0FE7D001EBEFF011D8F037C00C3EB9EEC64808DF063F08095F050354399
:2004B500C00453C0F7900159E4F0740855C0C423541FFE700FC0071202F5E582D00760EADB
:2004D50075820422EF2403F582E43401F583E5BCF00F80AC53C0FB53C0F7900159E4F074B6
:2004F5000855C0C423541F700B1202F5E58260EF75820522900102E0FF1FEF3395E0FEEF03
:200515002403F582EE3401F583E5BCF043C01053C0F7900159E4F0741055C0C4540FFFBFA3
:20053500010B1202F5E58260EE75820622758200227FFF900101E0FE900102E0FDC3EE9DF8
:200555005012EE2403F582E43401F583E0FF900101EE04F08F8222900102E0FF7E00900100
:1005750001E0FD7C00EFC39DFFEE9C8F82F5832299
:0110D8000017
:20058500AF8243F40853F37FEF701E43F35043900253B3FE53B1FE43B10253B3FD43B40152
:2005A50043B20143B20243B402228582F5748055F423540160F753F47F85F58222E582706B
:2005C5000443F3202253F3DF22AF8274F355F34FF5F322AF8274FC55F3FE74035F4EF5F327
:0305E500222222AD
:2005E800AF8253B1BF53B2BF53B17F53B27F8F8D759850438920438780438E1053C4DF436B
:20060800884043980222AF825398FD8F9974025598C31360F822AD82AE83AFF07C00EC2D83
:20062800F9E43EFA8F0389828A838BF0120FB56029EC2DF9E43EFA8F030C89828A838BF0BA
:20064800120FB5F582C007C006C005C00412060ED004D005D006D00780C42212061E901077
:200668008F75F08002061EAC82AD83AEF0FFE4FBFAEC4D4E4F700A7B019001457430F0804E
:2006880013EF30E70FC3E49CFCE49DFDE49EFEE49FFF7A01C3E49CE49DE49E74808FF063D4
:2006A800F08095F04003020764850C0E750F00751000751100850E2F850F3085103185117D
:2006C800328C828D838EF0EFC007C006C005C004C003C002120F1485821285831385F014C8
:2006E800F515D002D003D004D005D006D007C3E512940AE5139400E5149400E5156480940A
:20070800804019EBF83395E0F9E82445F582E93401F583A912743729F9F08017EBF833955C
:20072800E0F9E82445F582E93401F583A912743029F9F0850E2F850F308510318511328C69
:20074800828D838EF0EFC003C002120F63AC82AD83AEF0FFD002D0030B02069C8B07741024
:20076800B50C6FEBFD3395E0FE752F027530008D828E83C007C006C005C003C002120FD17F
:20078800A982AC83D002D003D005D006D007B90113BC0010EB04FFED2445F582EE3401F564
:2007A800837430F0EFFE04FDEE3395E0FCEE2445F582EC3401F5837478F0EDFE04FFEE3348
:2007C80095E0FDEE2445F582ED3401F5837430F080307402B50C2BEB04FEEB3395E0FDEB29
:2007E8002445F582ED3401F5837442F0EEFD04FFED3395E0FEED2445F582EE3401F5837474
:2008080030F0BA01158F060FEE3395E0FDEE2445F582ED3401F583742DF0EF14F512750D24
:2008280000EFFB3395E0FC752F027530008B828C83C007C004C003121007A982AA83D00319
:20084800D004D007A80D7D00C3E899ED64808AF063F08095F05048C007EB2445FAEC3401FE
:20086800FDE50D2445F8E43401F988828983E0FF8A828D83F0AD0DE512C39DFD3395E0FA5D
:20088800ED2445FDEA3401FA8D828A83E0FE88828983F08D828A83EFF0050DD0078082EB13
:2008A8002445F582EC3401F583E4F090014575F00002061EAC82AD83AEF0FF85160C8C82D2
:1108C8008D838EF0EF12066F90109275F08002066399
:04108F000D0A000046
:2008D90090109375F08012066380FE7582001205857582011205C27582001205CE758200B7
:2008F9000205D85390FD1205AFAF82439002EF70047582012275820022AC82AD83AEF0FFC3
:200919008E82C007C006C005C0041205AFD004D0058D82C005C0041205AFD004D005D0064C
:20093900D0078C820205AFAD82AE83AFF05390FD758290C007C006C0051205AF758200127C
:2009590005AF7582001205AF7582001205AF7582FF1205AFAC82D005D006D0078D828E83C4
:200979008FF0EC120E15AD17AE18AF197582FFC007C006C0051205AFAC82D005D006D007AE
:200999008D828E838FF0EC120E15439002227582060208FC7582040208FC1209A77582C703
:2009B9001208FC120A790209AD85821CE4FBFCFDFE7420B51C1C74FC251B50047582022222
:2009D900E51AC454F0FA790089038A047D007E00805B7452B51C32C3E51A9480E51B940061
:2009F900400475820222A81AA91B7A007F008905EA5401A2E0CD13CD13CDFEE8C3134DFD1E
:200A1900E8035480FC7B00802474D8B51C1FC3E51A9440E51B9400400475820222A81AA9B3
:200A39001B7A007F00890688057B007C00C006C005C004C0031209A75390FD851C82120588
:200A5900AFD003D004D005D0068B828C838DF0EE120912439002120A791209AD758200227D
:200A79005390FD7582051205AF7582FF1205AFE5825401FFBF010280EA439002225390FD41
:200A99007582031205AF7582001205AF7582001205AF7582001205AF7E007F00758200C092
:200AB90007C0061205AFAD82D006D007BDFF028004758201220EBE00010F8F0574FF2D50F2
:200AD900DB43900275820022AC82AD83AEF08E078D068C057C00C007C006C005C0041209D2
:200AF900A75390FD7582021205AFD004D005D006D0078C828D838EF0EF1209127C007D0090
:200B19007E007F00EC251DF9ED351EFAAB1F89828A838BF0120FB5F582C007C006C005C0A2
:200B3900041205AFD004D005D006D0070CBC00090DBD00050EBE00010FC3ED9401EE940039
:200B5900EF940040BF439002120A790209ADAC82AD83AEF0FFC007C006C005C0041209A705
:200B79005390FD7582021205AFD004D005D006D0078C828D838EF0EF1209127E007F00C3EF
:200B9900EE9523EF95245027EE2520FBEF3521FCAD228B828C838DF0120FB5F582C007C0CC
:200BB900061205AFD006D0070EBE00D30F80D0439002120A790209ADAC82AD83AEF08E07F2
:200BD9008D068C057C005390FD758203C007C006C005C0041205AFD004D005D006D0078CC4
:200BF900828D838EF0EF1209127C007D007E007F00EC2525F9ED3526FAAB27758200C007B9
:200C1900C006C005C004C003C002C0011205AFA882D001D002D003D004D005D006D00789E1
:200C3900828A838BF0E8120E150CBC00090DBD00050EBE00010FC3ED9401EE9400EF9400AE
:200C590040AF43900222AC82AD83AEF0FF5390FD758203C007C006C005C0041205AFD00410
:200C7900D005D006D0078C828D838EF0EF1209127E007F008E028F037C007D00C3EA952B9C
:200C9900EB952CEC952DED952E5037EE2528FBEF3529FCAD2A758200C007C006C005C00447
:200CB900C0031205AFAA82D003D004D005D006D0078B828C838DF0EA120E150EBE00B50FF5
:200CD90080B2439002225390FD7582031205AF7582001205AF7582001205AF7582001205AA
:200CF900AF7E007F00758200C007C0061205AFAD82D006D0078E04EDB50402800475820153
:140D1900220EBE00010F8F0574FF2D50D8439002758200227E
:201093000A2A2020535049204572726F722C20706C6561736520636865636B20746865204E
:2010B300636F6E6E656374696F6E206265747765656E204D435520616E6420535049204619
:0510D3006C6173680070
:200D2D00F9E52F45304531453260777800C308E53220E73BE52F25E0F52FE53033F530E535
:200D4D003133F531E53233F532E582952FE5839530E5F09531E9953250D4C3E53213F532B0
:200D6D00E53113F531E53013F530E52F13F52FE582952FFCE5839530FDE5F09531FEE99517
:200D8D00324007F98EF08D838C82C3E53213F532E53113F531E53013F530E52F13F52FD865
:030DAD00CEE9226A
:200DB000FB7A20E4FCFDFEFFE5822582F582E58333F583E5F033F5F0EB33FB4017DAE9807C
:200DD00042E5822582F582E58333F583E5F033F5F0EB33FBEC33FCED33FDEE33FEEF33FFAB
:200DF000EC952FED9530EE9531EF95324013EC952FFCED9530FDEE9531FEEF9532FF43823D
:050E100001DABEEB2237
:06003500E478FFF6D8FD9F
:200013007901E94400601B7A019010D8785975A001E493F2A308B8000205A0D9F4DAF27550
:02003300A0FF2C
:1B0E150020F71130F6138883A88220F509F6A8837583002280FEF280F5F022DC
:200E3000E52F453060467A01E52F25E0F52FE530334012F530E582952FE583953040030A57
:200E500080E6C3E53013F530E52F13F52FC3E582952FF5F0E58395304005F58385F082C34A
:0D0E7000E53013F530E52F13F52FDAE12200
:200E7D00AAF0FBE582852FF0A4FCADF0E583852FF0A42DFDE435F0FEE5828530F0A42DFDBD
:200E9D00E5F03EFEE433FFEA852FF0A42EFEE5F03FFFE5838530F0A42EFEE5F03FFFE58246
:200EBD008531F0A42EFEE5F03FFFEB852FF0A42FFFEA8530F0A42FFFE5838531F0A42FFFEA
:0E0EDD00E5828532F0A42F8EF08D838C822268
:200EEB007A10E4FBFCE58225E0F582E58333F583EB33FBEC33FCEB952FF5F0EC95304006CD
:090F0B00FCABF0438201DADD22A7
:20003B007800E84400600A790175A000E4F309D8FC7858E84401600C7902900001E4F0A368
:04005B00D8FCD9FAFA
:200F1400F9C2D530E715D2D5E4C39582F582E49583F583E495F0F5F0E499F9E53230E715AA
:200F3400E4C3952FF52FE49530F530E49531F531E49532F532E9120D2D30D512E4C3958294
:0F0F5400F582E49583F583E495F0F5F0E49922B6
:200F6300FBC2D530E715D2D5E4C39582F582E49583F583E495F0F5F0E49BFBE53230E71753
:200F8300B2D5E4C3952FF52FE49530F530E49531F531E49532F532EB120DB030D513FBE417
:120FA300C39582F582E49583F583E495F0F5F0E49B2288
:0D00060075813212103FE582600302000395
:1C0FB50020F71430F6148883A88220F507E6A88375830022E280F7E49322E0224B
:200FD100C2D5E58330E70DD2D5E4C39582F582E49583F583E53030E70BE4C3952FF52FE4E3
:160FF1009530F530120E3030D50BE4C39582F582E49583F58322D5
:20100700C2D5E58330E70DD2D5E4C39582F582E49583F583E53030E70DB2D5E4C3952FF536
:181027002FE49530F530120EEB30D50BE4C39582F582E49583F58322CE
:04103F007582002294
:00000001FF
